:10000000D2C00000FEC00000FCC00000FAC000002A
:10001000F8C00000F6C00000F4C00000F2C000000C
:10002000F0C00000EEC00000ECC00000EAC000001C
:10003000E8C00000E6C00000E4C00000E2C000002C
:10004000E0C00000DEC00000DCC00000DAC000003C
:10005000D8C00000D6C00000D4C0000043C30000D8
:10006000D0C00000B2C3000087C30000CAC00000B7
:10007000C8C00000C6C00000C4C00000C2C000006C
:10008000C0C00000BEC00000BCC00000BAC000007C
:10009000B8C00000B6C00000B4C00000B2C000008C
:1000A000B0C00000AEC00000ACC00000AAC000009C
:1000B000A8C00000A6C00000A4C00000A2C00000AC
:1000C000A0C000009EC000009CC000009AC00000BC
:1000D00098C0000096C0000094C0000092C00000CC
:1000E00090C0000000002200250028002B002E00F8
:1000F0003100340002010000050108010B0100007D
:100100002100240027002A002D00300033000101C7
:100110000000040107010A01050505050705080897
:100120000808020202020A0A080804040404010181
:100130000101010101010303030303030303040796
:1001400007070C0C0C0C0C0C0C0C0202020206062D
:100150000606060606060B0B0B0B0B0B0B0B010220
:1001600010202008081020401020408002010201C9
:100170000804020101020408102040808040201081
:1001800008040201800402018040201008040201DA
:100190000804020101020408102040800102040842
:1001A000102040806E0511241FBECFEFD1E2DEBFCC
:1001B000CDBF00E00CBF22E0A2E2B2E001C01D9280
:1001C000A03DB207E1F712E0A0E0B2E0EAEDFFE007
:1001D00000E00BBF02C007900D92A232B107D9F721
:1001E00010E0C3EDD0E000E005C021970109802FA9
:1001F000FE01D4D4C23DD10780E00807B1F71BD37C
:10020000EAC6FECE90E0FC01E25AFE4F2491FC01CA
:10021000E85EFE4F8491882399F090E0880F991F43
:10022000FC01E250FF4FA591B491FC01EC51FF4F4E
:10023000859194918FB7F894EC91E22BEC938FBF5A
:100240000895863308F0865390917B00282F2870FC
:10025000977F922B90937B008770806480937C00C3
:1002600080917A00806480937A0080917A0086FD84
:10027000FCCF809178002091790090E0922B089536
:100280003FB7F8948091C8029091C902A091CA0228
:10029000B091CB0226B5A89B05C02F3F19F001965F
:1002A000A11DB11D3FBFBA2FA92F982F8827820FFC
:1002B000911DA11DB11DBC01CD0142E0660F771F4C
:1002C000881F991F4A95D1F70895CF92DF92EF9238
:1002D000FF920F931F93CF93DF936C017A018B01F1
:1002E000C0E0D0E0CE15DF0581F0D8016D918D0121
:1002F000D601ED91FC910190F081E02DC601199598
:10030000892B11F02196EECF7E01C701DF91CF91AD
:100310001F910F91FF90EF90DF90CF900895089577
:1003200080E090E00895FC01538D448D252F30E04E
:10033000842F90E0821B930B541710F0CF960895F2
:1003400001970895FC01918D828D981761F0828D3F
:10035000DF01A80FB11D5D968C91928D9F5F9F73F9
:10036000928F90E008958FEF9FEF0895FC01918D9B
:10037000828D981731F0828DE80FF11D858D90E008
:1003800008958FEF9FEF0895FC01918D228D892FA5
:1003900090E0805C9F4F821B91098F73992708958D
:1003A00082E292E0F1DF21E0892B09F420E0822F44
:1003B0000895FC01848DDF01A80FB11DA35ABF4F22
:1003C0002C91848D90E001968F739927848FA68954
:1003D000B7892C93A089B1898C91837080648C93A8
:1003E000938D848D981306C00288F389E02D808157
:1003F0008F7D80830895EF92FF920F931F93CF9389
:10040000DF93EC0181E0888F9B8D8C8D981305C064
:10041000E889F989808185FD25C0F62E0B8D10E0D5
:100420000F5F1F4F0F731127E02E8C8DE8120BC04A
:100430000FB607FCFACFE889F989808185FFF5CFEF
:10044000CE01B7DFF2CF8B8DFE01E80FF11DE35A2D
:10045000FF4FF0829FB7F8940B8FEA89FB89808168
:1004600080620AC09FB7F894EE89FF896083E889AB
:10047000F98980818370806480839FBF81E090E0F0
:10048000DF91CF911F910F91FF90EF900895CF933F
:10049000DF93EC01888D8823C1F0EA89FB89808194
:1004A00085FD05C0A889B9898C9186FD0EC00FB65F
:1004B00007FCF5CF808185FFF2CFA889B9898C919F
:1004C00085FFEDCFCE0175DFE8CFDF91CF910895A5
:1004D00080E090E0892B19F063DF811125C080E076
:1004E00090E0892B41F080E090E0892B21F00E9480
:1004F000000081111CC080E090E0892B41F080E079
:1005000090E0892B21F00E940000811113C080E04F
:1005100090E0892BA1F080E090E0892B81F00E948F
:10052000000081110AC008950E940000D8CF0E94E7
:100530000000E1CF0E940000EACF0C940000089573
:10054000CF93DF93EC0188819981009709F0C6D39E
:10055000198218821D821C821B821A82DF91CF9120
:10056000089525D50F931F93CF93DF93EC018881D6
:100570009981009729F02A813B812617370780F45B
:100580008B016F5F7F4F33D4009761F0998388832D
:100590001B830A832C813D81232B11F4FC011082E3
:1005A00081E001C080E0DF91CF911F910F9108950C
:1005B000CF92DF92EF92FF920F931F93CF93DF932F
:1005C000CDB7DEB762970FB6F894DEBF0FBECDBFD2
:1005D0008C01CB01F80111821082138212821582E4
:1005E00014824AE09E012F5F3F4F6901B901A3D2F7
:1005F000F60101900020E9F731977F01EC18FD0822
:10060000B701C801AFDF811103C0C80199DF07C07E
:10061000F801F582E482B60180819181D5D4629699
:100620000FB6F894DEBF0FBECDBFDF91CF911F9103
:100630000F91FF90EF90DF90CF900895EF92FF928F
:100640000F931F93CF93DF936115710511F480E031
:100650001AC041155105B1F07B01EC018C819D81DF
:100660008A01080F191FB801CE017CDF882379F3B6
:10067000288139818C819D81B701820F931FA4D479
:100680001D830C8381E0DF91CF911F910F91FF902B
:10069000EF900895CF93DF93EC01FB0144815581E6
:1006A00060817181CBDF811102C0CE0149DFCE01B3
:1006B000DF91CF910895CF93DF93EC016115710520
:1006C00059F0FB0101900020E9F73197AF01461B7B
:1006D000570BB4DF811102C0CE0132DFCE01DF91B2
:1006E000CF9108951F920F920FB60F9211242F935E
:1006F0003F938F939F93AF93BF938091C402909148
:10070000C502A091C602B091C7023091C30223E096
:10071000230F2D3720F40196A11DB11D05C026E839
:10072000230F0296A11DB11D2093C3028093C40222
:100730009093C502A093C602B093C7028091C802ED
:100740009091C902A091CA02B091CB020196A11D5D
:10075000B11D8093C8029093C902A093CA02B093BE
:10076000CB02BF91AF919F918F913F912F910F90AD
:100770000FBE0F901F9018951F920F920FB60F92F9
:1007800011240BB60F922F933F934F935F936F9368
:100790007F938F939F93AF93BF93EF93FF9382E2E7
:1007A00092E007DEFF91EF91BF91AF919F918F9102
:1007B0007F916F915F914F913F912F910F900BBE61
:1007C0000F900FBE0F901F9018951F920F920FB6AB
:1007D0000F9211240BB60F922F938F939F93EF9349
:1007E000FF93E0913202F09133028081E091380270
:1007F000F091390282FD12C0908180913B028F5F9F
:100800008F7320913C02821751F0E0913B02F0E09F
:10081000EE5DFD4F958F80933B0201C08081FF917B
:10082000EF919F918F912F910F900BBE0F900FBE64
:100830000F901F901895CF93DF93CDB7DEB76897D1
:100840000FB6F894DEBF0FBECDBF789484B582603A
:1008500084BD84B5816084BD85B5826085BD85B564
:10086000816085BD80916E00816080936E001092E2
:10087000810080918100826080938100809181005D
:1008800081608093810080918000816080938000EE
:100890008091B10084608093B1008091B00081604C
:1008A0008093B0008091910082608093910080914C
:1008B000910081608093910080919000816080938D
:1008C00090008091A10082608093A1008091A1009E
:1008D00081608093A1008091A00081608093A0003E
:1008E00080912101826080932101809121018160AA
:1008F000809321018091200181608093200180916B
:100900007A00846080937A0080917A00826080937C
:100910007A0080917A00816080937A0080917A00D9
:10092000806880937A001092C1008BE06BDC8CE0D1
:1009300069DC8DE067DCE0913202F091330282E005
:100940008083E0912E02F0912F021082E09130021C
:10095000F09131028FEC808310923A02E0913602DE
:10096000F091370286E08083E0913402F091350205
:10097000808180618083E0913402F0913502808132
:1009800088608083E0913402F09135028081806834
:100990008083E0913402F091350280818F7D8083E5
:1009A00084E690E0A0E0B0E08093260290932702D6
:1009B000A0932802B093290286E343DC9093C202FD
:1009C0008093C10287E33DDC9093C0028093BF0215
:1009D00088E337DCBC01CE010196EADD6091BF02FD
:1009E0007091C002CE010796E3DD6091C102709163
:1009F000C202CE010D96DCDD1C8A1B8A1E8A1D8A6E
:100A0000188E1F8A61E070E0CE014396ABDD811144
:100A100004C0CE01439694DD09C081E090E0988F38
:100A20008F8B68E172E08B899C89CED2BE01635FB7
:100A30007F4FCE0143962EDE6AE172E03CDEBE01BE
:100A4000695F7F4F27DE6AE172E035DEBE016F5FCE
:100A50007F4F20DE6CE172E02EDEFC014481558187
:100A60006081718182E292E030DC42E050E06EE130
:100A700072E082E292E029DC8B899C892FD18D85FE
:100A80009E852CD18F81988529D189819A8126D103
:100A9000F7DB6B017C0184E6882E912CA12CB12C14
:100AA000EFDBDC01CB018C199D09AE09BF09883E43
:100AB0009340A105B105A0F3F1E08F1A9108A108B8
:100AC000B10828EEC20E23E0D21EE11CF11C8114F5
:100AD0009104A104B10421F7FBDC6ECFE2E2F2E065
:100AE0001382128288EE93E0A0E0B0E084839583C5
:100AF000A683B7838AE092E09183808385EC90E0BF
:100B00009587848784EC90E09787868780EC90E0D7
:100B1000918B808B81EC90E0938B828B82EC90E0C8
:100B2000958B848B86EC90E0978B868B118E128E42
:100B3000138E148E0895BB274A3031F4992322F482
:100B4000BDE2909581959F4F01C0BB27FB015527C2
:100B5000AA27880F991FAA1FA41710F0A41B83951A
:100B60005051B9F7A05DAA3308F0A95DA193009791
:100B700079F7B111B1931192CB0100C0DC01FC01F6
:100B8000672F71917723E1F7329704C07C916D93C1
:100B900070836291AE17BF07C8F30895EE0FFF1F71
:100BA000881F8BBF0790F691E02D19940F931F9328
:100BB000CF93DF938230910510F482E090E0E091D2
:100BC000CE02F091CF0220E030E0A0E0B0E030971C
:100BD00019F1408151810281138148175907C8F0EA
:100BE0008417950769F4109731F012960C931297B9
:100BF00013961C9327C00093CE021093CF0222C0FD
:100C00002115310519F04217530718F49A01BD0157
:100C1000EF01DF01F801DBCF21153105F9F0281BC9
:100C2000390B2430310580F48A819B81611571056F
:100C300021F0FB019383828304C09093CF028093C1
:100C4000CE02FE01329644C0FE01E20FF31F8193F3
:100C5000919322503109398328833AC02091CC02E4
:100C60003091CD02232B41F42091020230910302F6
:100C70003093CD022093CC022091000230910102EA
:100C80002115310541F42DB73EB740910402509132
:100C90000502241B350BE091CC02F091CD02E21746
:100CA000F307A0F42E1B3F0B2817390778F0AC018F
:100CB0004E5F5F4F2417350748F04E0F5F1F50936C
:100CC000CD024093CC028193919302C0E0E0F0E02A
:100CD000CF01DF91CF911F910F910895CF93DF93B3
:100CE000009709F481C0FC01329713821282A0910F
:100CF000CE02B091CF02109781F420813181820F12
:100D0000931F2091CC023091CD022817390751F55D
:100D1000F093CD02E093CC0267C0ED0120E030E01B
:100D2000CE17DF0740F44A815B819E0141155105D2
:100D3000F1F0EA01F5CFD383C28340815181840F62
:100D4000951FC817D90759F488819981840F951F79
:100D50000296918380838A819B819383828321156C
:100D6000310529F4F093CF02E093CE023DC0E901B2
:100D7000FB83EA8349915991C40FD51FEC17FD07F6
:100D800061F480819181840F951F0296E901998316
:100D90008883828193819B838A83E0E0F0E01296CE
:100DA0008D919C911397009719F0FD01DC01F7CF0D
:100DB0008D919C9111979D012E5F3F4F820F931F44
:100DC0002091CC023091CD022817390769F4309771
:100DD00029F41092CF021092CE0202C01382128226
:100DE000B093CD02A093CC02DF91CF9108956F9282
:100DF0007F928F929F92AF92BF92CF92DF92EF92AB
:100E0000FF920F931F93CF93DF93009781F4CB0151
:100E1000DF91CF911F910F91FF90EF90DF90CF90D6
:100E2000BF90AF909F908F907F906F90BFCEFC014E
:100E3000E60FF71F9C0122503109E217F30708F46F
:100E4000A5C0EC01D9010D911C9111970617170748
:100E5000A8F00530110508F497C0C801049786175B
:100E6000970708F491C002501109061B170B019354
:100E700011936D937C93CF0131DF86C05B01A01A83
:100E8000B10A4C01800E911EA091CE02B091CF020A
:100E9000612C712CE12CF12C109709F446C08D9136
:100EA0009C911197A815B905B1F56C0142E0C40EEB
:100EB000D11CCA14DB0478F14C018A189B08640128
:100EC00042E0C40ED11C1296BC9012971396AC91BE
:100ED000B5E0CB16D10440F0B282A3839182808228
:100EE000D9016D937C9309C00E5F1F4F800F911F36
:100EF000F90191838083EB2DFA2FE114F10431F095
:100F0000D7011396FC93EE9312973EC0F093CF0255
:100F1000E093CE0239C06816790608F43C017D01E1
:100F200012960D90BC91A02DB7CF8091CC029091DC
:100F3000CD0288169906E1F466167706C8F480910A
:100F4000000290910102009741F48DB79EB7409145
:100F5000040250910502841B950BE817F907B0F4C1
:100F6000F093CD02E093CC02F901718360830CC051
:100F7000CB011CDE7C01009749F0A801BE011BD00B
:100F8000CE01ACDEC70104C0CE0102C080E090E01B
:100F9000DF91CF911F910F91FF90EF90DF90CF9055
:100FA000BF90AF909F908F907F906F90089581E059
:100FB00090E0F89410C0FB01DC0102C001900D929A
:100FC00041505040D8F70895FB01DC0101900D928B
:0A0FD0000020E1F70895F894FFCF28
:100FDA000000D002800000000000FB0165019301BF
:100FEA004702C401A201B6014800520054000D0A8A
:020FFA000000F5
:00000001FF
