:100000000C944D010C947E010C947E010C947E01A5
:100010000C947E010C947E010C947E010C947E0164
:100020000C947E010C947E010C947E010C947E0154
:100030000C947E010C947E010C947E010C947E0144
:100040000C947E010C947E010C947E010C947E0134
:100050000C947E010C947E010C947E010C94E307B9
:100060000C947E010C94AD070C9483070C947E01D4
:100070000C947E010C947E010C947E010C947E0104
:100080000C947E010C947E010C947E010C947E01F4
:100090000C947E010C947E010C947E010C947E01E4
:1000A0000C947E010C947E010C947E010C947E01D4
:1000B0000C947E010C947E010C947E010C947E01C4
:1000C0000C947E010C947E010C947E010C944D07DF
:1000D0000C9423070C947E010C947E010C947E01F9
:1000E0000C947E010C945D040C94A1030C949D036C
:1000F0000C946C040C94A7030C9425040C94F40148
:100100000C94F4020C94AF030C9490030C9497039A
:100110000C949E040C943F040C9457020C94B90365
:100120000C94AC0A0C9488030C9411040C941B04DA
:100130000C948A040C94AB030C9404040C942F04C8
:100140000C9453040C940C040C9471030C94C7018C
:100150000C94C3030C94B5030C9449040C947603DB
:100160000C94BD030C94C7030C942D080C948C03C1
:100170000C9476040C9480040C9494030C94650203
:100180000C9437040C9494040C94A7020C9403026E
:1001900000000A0B02090C0D0E0807030401000001
:1001A000000000000000000000000000000000004F
:1001B000000000000000000000000000121110000C
:1001C000000000000000000000000000000000002F
:1001D00000000000000000002200250028002B0085
:1001E0002E003100340002010000050108010B015E
:1001F00000002100240027002A002D0030003300D9
:1002000001010000040107010A01050505050705B4
:1002100008080808020202020A0A08080404040482
:1002200001010101010101010303030303030303AE
:10023000040707070C0C0C0C0C0C0C0C020202023D
:1002400006060606060606060B0B0B0B0B0B0B0B26
:1002500001021020200808102040102040800201D8
:1002600002010804020101020408102040808040BD
:1002700020100804020180040201804020100804BC
:10028000020108040201010204081020408001025A
:100290000408102040802D08AC0A11241FBECFEFA7
:1002A000D1E2DEBFCDBF00E00CBF23E0A4E2B2E0AC
:1002B00001C01D92A537B207E1F712E0A0E0B2E05D
:1002C000EAEFFAE100E00BBF02C007900D92A43202
:1002D000B107D9F711E0CCE4D1E000E006C02197E6
:1002E0000109802FFE010E94210BCB34D10780E051
:1002F0000807A9F70E9485080C946B0D0C94000068
:10030000FC01A089B18982E08C93A485B5851C92FB
:10031000A685B7858FEC8C93108EA489B58986E06D
:100320008C93A289B3898C9180618C93A289B389C3
:100330008C9188608C93A289B3898C9180688C930E
:100340000288F389E02D80818F7D8083089590E07D
:10035000FC01E05BFD4F2491865F9D4FFC01849181
:10036000882399F090E0880F991FFC01E051FE4F1F
:10037000A591B491FC01EA52FE4F859194918FB7FB
:10038000F894EC91E22BEC938FBF08950895AF920F
:10039000BF92CF92DF92EF92FF920F931F93CF9372
:1003A000DF936C017B018B01040F151FEB015E01D4
:1003B000AE18BF08C017D10759F06991D601ED9169
:1003C000FC910190F081E02DC6011995892B79F7F8
:1003D000C501DF91CF911F910F91FF90EF90DF90BA
:1003E000CF90BF90AF900895FC01538D448D252F81
:1003F00030E0842F90E0821B930B541710F0CF96BF
:10040000089501970895FC01918D828D981761F0F0
:10041000A28DAE0FBF2FB11D5D968C91928D9F5F07
:100420009F73928F90E008958FEF9FEF08952FB7FD
:10043000F89480912D0290912E02A0912F02B091FC
:1004400030022FBF8093D6029093D702A093D80298
:10045000B093D9028EEC92E00E94030297FF26C06F
:100460002FB7F89480912D0290912E02A0912F0227
:10047000B09130022FBF4091D6025091D7026091C7
:10048000D8027091D902841B950BA60BB70B409133
:10049000D2025091D3026091D4027091D502841798
:1004A0009507A607B707B0F28FEF9FEF0895FC01FD
:1004B000918D828D981731F0828DE80FF11D858D19
:1004C00090E008958FEF9FEF0895FC01918D228DAC
:1004D000892F90E0805C9F4F821B91098F73992731
:1004E000089581E392E00E94650221E0892B09F4DE
:1004F00020E0822F08958EEC92E00E94650221E0B8
:10050000892B09F420E0822F0895FC01A48DA80F07
:10051000B92FB11DA35ABF4F2C91848D90E0019645
:100520008F739927848FA689B7892C93A089B18965
:100530008C91837080648C93938D848D981306C006
:100540000288F389E02D80818F7D80830895EF926A
:10055000FF920F931F93CF93DF93EC0181E0888F7D
:100560009B8D8C8D98131AC0E889F989808185FF4D
:1005700015C09FB7F894EE89FF896083E889F989EF
:1005800080818370806480839FBF81E090E0DF91F1
:10059000CF911F910F91FF90EF900895F62E0B8D44
:1005A00010E00F5F1F4F0F731127E02E8C8D8E11FF
:1005B0000CC00FB607FCFACFE889F989808185FF66
:1005C000F5CFCE010E948502F1CFEB8DEC0FFD2F10
:1005D000F11DE35AFF4FF0829FB7F8940B8FEA8921
:1005E000FB8980818062CFCFCF93DF93EC01888D30
:1005F0008823B9F0AA89BB89E889F9898C9185FD9E
:1006000003C0808186FD0DC00FB607FCF7CF8C912B
:1006100085FFF2CF808185FFEDCFCE010E9485025C
:10062000E9CFDF91CF91089580E090E0892B29F008
:100630000E947B0281110E94000080E090E0892BE3
:1006400049F080E090E0892B29F00E9400008111A0
:100650000E94000080E090E0892B29F00E94710246
:1006600081110E94000080E090E0892B49F080E039
:1006700090E0892B29F00E94000081110C94000069
:100680000895282F30E0F901E057FE4F9491F901C9
:10069000E05BFD4F4491265F3D4FF90124912223F9
:1006A00009F435C0992311F191509231F8F4E92FF2
:1006B000F0E08827E15AFC4F8F4F0C94210B9003F8
:1006C0009403710388038C03760397039D03A103AE
:1006D000A703AB03AF03B503B9037603BD03C3039D
:1006E000C703809180008F7780938000E22FF0E035
:1006F000EE0FFF1FEA52FE4FA591B4918FB7F89409
:10070000EC91611148C040954E234C938FBF0895E2
:10071000809180008F7DE8CF80918000877FE4CF3B
:1007200084B58F7784BDE2CF84B58F7DFBCF809178
:10073000B0008F778093B000D9CF8091B0008F7DCB
:10074000F9CF809190008F7780939000CFCF8091E8
:1007500090008F7DF9CF80919000877FF5CF8091B9
:10076000A0008F778093A000C1CF8091A0008F7DE3
:10077000F9CF8091A000877FF5CF809120018F77FE
:1007800080932001B3CF809120018F7DF9CF80919C
:100790002001877FF5CF4E2BB8CF1F93CF93DF93E8
:1007A000182FEB010E94A701209739F460E0812FF8
:1007B000DF91CF911F910C944103CF3FD10511F4EC
:1007C00061E0F5CFE12FF0E0E057FE4FE491E1501A
:1007D000E23108F0B3C0F0E08827EE50FC4F8F4FB5
:1007E0000C94210B04040C0411041B0425049E0426
:1007F0002F0437043F04490453045D046C04760459
:100800009E0480048A04940484B5806884BDC7BDB6
:10081000DF91CF911F91089584B5806284BDC8BDDA
:10082000F7CF80918000806880938000D09389000A
:10083000C0938800EDCF809180008062809380001B
:10084000D0938B00C0938A00E3CF809180008860B2
:1008500080938000D0938D00C0938C00D9CF80917D
:10086000B00080688093B000C093B300D1CF809176
:10087000B00080628093B000C093B400C9CF809173
:100880009000806880939000D0939900C093980066
:10089000BFCF80919000806280939000D0939B00A6
:1008A000C0939A00B5CF80919000886080939000AB
:1008B000D0939D00C0939C00ABCF8091A000806836
:1008C0008093A0008091A0008F7B8093A000D093A4
:1008D000A900C093A8009CCF8091A0008062809363
:1008E000A000D093AB00C093AA0092CF8091A0004B
:1008F00088608093A000D093AD00C093AC0088CFF7
:1009000080912001806880932001D0932901C093B9
:1009100028017ECF80912001806280932001D093B6
:100920002B01C0932A0174CF8091200188608093AD
:100930002001D0932D01C0932C016ACFC038D1057E
:100940000CF03ECF33CF863308F0865320917B00E6
:10095000982F9870277F922B90937B0087708064EC
:1009600080937C0080917A00806480937A008091EB
:100970007A0086FDFCCF80917800909179000895EF
:100980003FB7F8948091250290912602A09127020A
:10099000B091280226B5A89B05C02F3F19F00196FB
:1009A000A11DB11D3FBFBA2FA92F982F8827BC01C9
:1009B000CD01620F711D811D911D42E0660F771FF1
:1009C000881F991F4A95D1F708952F923F924F9211
:1009D0005F926F927F928F929F92AF92BF92CF92CF
:1009E000DF92EF92FF920F931F93CF93DF9360906C
:1009F0006F03709070036114710409F410C1FC015D
:100A0000848095808114910409F409C18B017C01D3
:100A1000FB01C480D580C818D908C0916B03D09160
:100A20006C03C114D104B9F4F70160817181CE0166
:100A30000E94510DEC01009709F4F1C0F8016081AA
:100A40007181448155810E942F0DF8018481958127
:100A5000C80FD91FE9CFD7FC10C0FC0140805180DE
:100A60005301CE01B2010E94510D009709F44CC010
:100A7000880D991DAC0CBD1CF5CF5E01F70160819E
:100A80007181CE010E94510D3C01009739F14C015A
:100A90008C1A9D0AA401BE01C5010E942F0DA80C4D
:100AA000B91CF8016081718144815581C5010E94A2
:100AB0002F0DF80184819581A80EB91EF701C4811C
:100AC000D581C60DD71D80916F03909170038C0D59
:100AD0009D1D9093700380936F03D0CFBE01C5011D
:100AE000DF91CF911F910F91FF90EF90DF90CF900A
:100AF000BF90AF909F908F907F906F905F904F903E
:100B00003F902F900C944A0D6A147B0409F487C01F
:100B100080916D0390916E038A159B0588F4B50151
:100B20006F5F7F4FCE010E944E0C009709F477C093
:100B300090936C0380936B03B0926E03A0926D034D
:100B4000C0916F03D09170032197D7FD68C04E010B
:100B5000F701448055804114510409F460C0A0900D
:100B60006F03B0907003A114B10409F458C0A41429
:100B7000B50408F454C0CA15DB0520F04501F1E0C6
:100B80008F1A910860906B0370906C03C301CFEFD4
:100B9000DFEF1301280C391C2816390688F0F701FD
:100BA000608171810E94510D009751F09C012619BE
:100BB00037098216930608F49E010196E901ECCFED
:100BC000D7FD2DC04C0E5D1EC301840D951DA501E2
:100BD00044195509BC018C0D9D1D0E94380D809152
:100BE0006F03909170038C0D9D1D90937003809303
:100BF0006F0320916B0330916C03820F931FFC01F4
:100C0000108280916B0390916C03F8016081718177
:100C1000448155818C0F9D1F0E942F0D95CFDF9130
:100C2000CF911F910F91FF90EF90DF90CF90BF90E9
:100C3000AF909F908F907F906F905F904F903F907C
:100C40002F9008950F931F93CF93DF93EC0188812A
:100C50009981009759F02A813B812617370730F098
:100C600081E0DF91CF911F910F9108958B016F5F0C
:100C70007F4F0E944E0C009759F0998388831B8305
:100C80000A832C813D81232B59F7FC011082E8CF88
:100C900080E0E7CFEF92FF920F931F93CF93DF9304
:100CA0006115710541F480E0DF91CF911F910F91A3
:100CB000FF90EF90089541155105B1F07B01EC01D3
:100CC0000C811D81040F151FB8010E942206882384
:100CD00051F3288139818C819D81B701820F931F47
:100CE0000E944A0D1D830C8381E0DECFCF93DF93FA
:100CF000EC0188819981009711F00E94C50B19823F
:100D000018821D821C821B821A82DF91CF91089566
:100D1000CF93DF93EC01FB0101900020E9F73197BD
:100D2000AF01461B570B0E944A06811103C0CE013A
:100D30000E947606CE01DF91CF910895CF93DF9385
:100D4000EC01FB0144815581608171810E944A065A
:100D5000811103C0CE010E947606CE01DF91CF91B2
:100D60000895EF92FF920F931F93CF93DF93EC01BF
:100D70007B018A01BA010E94220681110BC0CE01BB
:100D80000E947606CE01DF91CF911F910F91FF90C7
:100D9000EF9008951D830C83B701888199810E948B
:100DA0004A0DF0CFEF92FF920F931F93CF93DF93F3
:100DB000CDB7DEB762970FB6F894DEBF0FBECDBFDA
:100DC0008C01CB01F80111821082138212821582EC
:100DD00014824AE09E012F5F3F4F7901B9010E94C2
:100DE000D70AF70101900020E9F73197AF014E19BA
:100DF0005F09B701C8010E94B10662960FB6F89468
:100E0000DEBF0FBECDBFDF91CF911F910F91FF903D
:100E1000EF900895FC0111821082138212821582D4
:100E20001482FB0101900020E9F73197AF01461BC6
:100E3000570B0C94B106FC0180819181009711F051
:100E40000C94C50B08951F920F920FB60F921124A8
:100E50000BB60F922F933F934F935F936F937F93B4
:100E60008F939F93AF93BF93EF93FF9381E392E0B0
:100E70000E948502FF91EF91BF91AF919F918F9159
:100E80007F916F915F914F913F912F910F900BBE8A
:100E90000F900FBE0F901F9018951F920F920FB6D4
:100EA0000F9211240BB60F922F938F939F93EF9372
:100EB000FF93E0914102F09142028081E09147026C
:100EC000F091480282FD1DC0908180914A028F5F9F
:100ED0008F7320914B02821741F0E0914A02F0E0BB
:100EE000EF5CFD4F958F80934A02FF91EF919F91A8
:100EF0008F912F910F900BBE0F900FBE0F901F90F0
:100F000018958081F2CF1F920F920FB60F92112485
:100F10000BB60F922F933F934F935F936F937F93F3
:100F20008F939F93AF93BF93EF93FF938EEC92E0D9
:100F30000E948502FF91EF91BF91AF919F918F9198
:100F40007F916F915F914F913F912F910F900BBEC9
:100F50000F900FBE0F901F9018951F920F920FB613
:100F60000F9211240BB60F922F938F939F93EF93B1
:100F7000FF93E091DE02F091DF028081E091E402D4
:100F8000F091E50282FD1DC090818091E7028F5FA4
:100F90008F732091E802821741F0E091E702F0E0C0
:100FA000E253FD4F958F8093E702FF91EF919F9160
:100FB0008F912F910F900BBE0F900FBE0F901F902F
:100FC00018958081F2CF1F920F920FB60F921124C5
:100FD0002F933F938F939F93AF93BF9380912D0255
:100FE00090912E02A0912F02B091300230912402F4
:100FF00023E0230F2D3758F50196A11DB11D209335
:10100000240280932D0290932E02A0932F02B0937E
:1010100030028091250290912602A0912702B09182
:1010200028020196A11DB11D8093250290932602EE
:10103000A0932702B0932802BF91AF919F918F9107
:101040003F912F910F900FBE0F901F90189526E89B
:10105000230F0296A11DB11DD2CFE1E3F2E013826E
:10106000128248EE53E060E070E04483558366836B
:1010700077838AE092E09183808325ED30E03587A5
:10108000248724ED30E03787268720ED30E0318B50
:10109000208B21ED30E0338B228B22ED30E0358B3D
:1010A000248B26ED30E0378B268B118E128E138E1B
:1010B000148EEEECF2E01382128244835583668331
:1010C00077839183808385EC90E09587848784EC97
:1010D00090E09787868780EC90E0918B808B81EC05
:1010E00090E0938B828B82EC90E0958B848B86ECE6
:1010F00090E0978B868B118E128E138E148E62E287
:1011000072E08BE693E00C940A07CF93DF93CDB7A0
:10111000DEB768970FB6F894DEBF0FBECDBF7894E8
:1011200084B5826084BD84B5816084BD85B58260EC
:1011300085BD85B5816085BD80916E00816080939D
:101140006E00109281008091810082608093810006
:101150008091810081608093810080918000816016
:10116000809380008091B10084608093B100809171
:10117000B00081608093B000809191008260809384
:101180009100809191008160809391008091900006
:101190008160809390008091A10082608093A10083
:1011A0008091A10081608093A1008091A000816066
:1011B0008093A00080912101826080932101809121
:1011C00021018160809321018091200181608093C1
:1011D000200180917A00846080937A0080917A0067
:1011E000826080937A0080917A00816080937A0097
:1011F00080917A00806880937A001092C1008BE021
:101200000E94A7018CE00E94A7018DE00E94A70127
:101210008EEC92E00E94800185E090E0A0E0B0E0DA
:101220008093D2029093D302A093D402B093D502BC
:1012300081E392E00E94800186E30E94A3049093E0
:101240002C0280932B0287E30E94A30490932A022E
:101250008093290288E30E94A304BC01CE01019679
:101260000E94D2066091290270912A02CE0107964F
:101270000E94D20660912B0270912C02CE010D9635
:101280000E94D20668E172E0CE0143960E940A07EE
:10129000BE01635F7F4FCE0143960E949E066AE1C6
:1012A00072E00E948806BE01695F7F4F0E949E0621
:1012B0006AE172E00E948806BE016F5F7F4F0E9464
:1012C0009E066CE172E00E948806FC014481558113
:1012D000608171818EEC92E00E94C701CE0143963D
:1012E0000E941B07CE010D960E941B07CE01079698
:1012F0000E941B07CE0101960E941B078EEC92E014
:101300000E946502181619060CF0FBC062E272E03A
:10131000CE0101960E940A070E94170297FD0CC099
:101320008F83188641E050E0BE01695F7F4FCE0198
:1013300001960E944A06F0CF80916B0390916C0356
:10134000009709F4A9C069817A816115710509F4D2
:10135000A1C040916D0350916E032D813E814217D3
:10136000530708F497C00E944A0D8D819E81909387
:10137000700380936F031E821D82CE0101960E942E
:101380001B0762E272E0CE0101960E940A0761E249
:1013900072E0CE0107960E940A07BE016F5F7F4F81
:1013A000CE0107960E94E504CE0107960E941B0716
:1013B000CE0101960E941B0762E272E0CE01019607
:1013C0000E940A076EE172E0CE0107960E940A07AA
:1013D000BE016F5F7F4FCE0107960E94E504CE01EC
:1013E00007960E941B07CE0101960E941B074091A1
:1013F0006F035091700360916B0370916C0381E3F4
:1014000092E00E94C70142E050E060E272E081E3B6
:1014100092E00E94C70162E272E0CE0101960E9452
:101420000A0701E010E09BE0E92EF12C80916F03A8
:10143000909170039C01215031090217130708F0A5
:1014400053C00817190708F042C080916B039091B0
:101450006C030097E1F1800F911FFC0180818235C0
:10146000B9F589819A81009771F10E94B00A6701EC
:10147000FFEFCF1ADF0A8E2D0E94CD0350E040E02F
:1014800062E272E0CE0101960E94B10676010F5F22
:101490001F4FCCCF0E94C50B89819A8190936C031A
:1014A00080936B038B819C8190936E0380936D037B
:1014B0008D819E819093700380936F031A821982AD
:1014C0001C821B8258CF60E070E0CB01D0CF80E05F
:1014D0008F83188641E050E0BE01695F7F4FCE01E7
:1014E00001960E944A06D3CF89819A81009781F1A3
:1014F0000E94B00A8E2D0E94CD03CE0101960E945B
:101500001B070E94C0046B017C0189E1882E912C8D
:10151000A12CB12C0E94C0046C197D098E099F0971
:10152000683E734081059105A8F321E0821A910875
:10153000A108B10888EEC80E83E0D81EE11CF11C9A
:1015400081149104A104B10429F70E94140374CEFC
:1015500060E070E0CB01CECF8BE693E00C941B07EC
:101560001F93FC0199278827BC01E8941191103240
:10157000E9F3193010F01E30C8F31B3251F01D3260
:1015800049F4689406C00E94E20A610F711D811D32
:10159000911D119110531A30B0F33EF4909580953F
:1015A000709561957F4F8F4F9F4F1F910895BB2777
:1015B0004A3031F4992322F4BDE2909581959F4FF2
:1015C0000C94F80A592F482F372F262F660F771FB4
:1015D000881F991F660F771F881F991F620F731F3F
:1015E000841F951F660F771F881F991F0895BB27BB
:1015F000FB015527AA27880F991FAA1FA41710F0CF
:10160000A41B83955051B9F7A05DAA3308F0A95DDA
:10161000A193009779F7B111B1931192CB010C947A
:10162000110BDC01FC01672F71917723E1F73297F1
:1016300004C07C916D9370836291AE17BF07C8F3AD
:101640000895EE0FFF1F881F8BBF0790F691E02DC6
:1016500019940F931F93CF93DF938230910510F469
:1016600082E090E0E0917303F091740330E020E0B9
:10167000B0E0A0E0309799F42115310509F44AC093
:10168000281B390B24303105D8F58A819B816115DF
:10169000710589F1FB0193838283FE0111C04081B2
:1016A00051810281138148175907E0F04817590703
:1016B00099F4109761F012960C93129713961C935D
:1016C0003296CF01DF91CF911F910F910895009332
:1016D000730310937403F4CF2115310551F04217B1
:1016E000530738F0A901DB019A01BD01DF01F801C0
:1016F000C1CFEF01F9CF9093740380937303CDCFE3
:10170000FE01E20FF31F8193919322503109398337
:101710002883D7CF2091710330917203232B41F49A
:1017200020910202309103023093720320937103DF
:1017300020910002309101022115310541F42DB7AD
:101740003EB74091040250910502241B350BE091F5
:101750007103F0917203E217F307A0F42E1B3F0B05
:101760002817390778F0AC014E5F5F4F2417350713
:1017700048F04E0F5F1F50937203409371038193A3
:1017800091939FCFF0E0E0E09CCFCF93DF93009761
:10179000E9F0FC01329713821282A0917303B09199
:1017A0007403ED0130E020E01097A1F42081318135
:1017B000820F931F2091710330917203281739070C
:1017C00009F061C0F0937203E0937103DF91CF9150
:1017D0000895EA01CE17DF07E8F54A815B819E0193
:1017E00041155105B1F7E901FB83EA83499159910C
:1017F000C40FD51FEC17FD0761F48081918102961B
:10180000840F951FE90199838883828193819B834B
:101810008A83F0E0E0E012968D919C9113970097F7
:10182000B9F52D913C911197CD010296820F931F2E
:1018300020917103309172032817390739F63097D8
:1018400051F51092740310927303B0937203A09336
:101850007103BCCFD383C28340815181840F951F14
:10186000C817D90761F44E5F5F4F88819981480F8F
:10187000591F518340838A819B81938382832115E1
:10188000310509F0B0CFF0937403E09373039ECF5A
:10189000FD01DC01C0CF13821282D7CF4F925F923D
:1018A0006F927F928F929F92AF92BF92CF92DF9270
:1018B000EF92FF920F931F93CF93DF938C010097CA
:1018C00099F4CB01DF91CF911F910F91FF90EF9091
:1018D000DF90CF90BF90AF909F908F907F906F9050
:1018E0005F904F900C94290BFC01E60FF71F9C01B1
:1018F00022503109E217F30708F4AEC0D901CD91A7
:10190000DC911197C617D70720F1C530D10578F0C3
:10191000CE0104978617970750F0C61BD70B229766
:10192000C193D1936D937C93CF010E94C50BC801E5
:10193000DF91CF911F910F91FF90EF90DF90CF90AB
:10194000BF90AF909F908F907F906F905F904F90DF
:1019500008955B01AC1ABD0A4C018C0E9D1EA0912E
:101960007303B0917403512C412CF12CE12C10978E
:1019700031F580917103909172038815990509F0F2
:101980005CC04616570608F058C08091000290913E
:101990000102009741F48DB79EB740910402509127
:1019A0000502841B950BE817F90708F055C0F09362
:1019B0007203E0937103F90171836083B8CF8D9155
:1019C0009C91119712966C90129713967C90139796
:1019D000A815B90559F56C0142E0C40ED11CCA1412
:1019E000DB0420F1AC014A195B09DA011296159764
:1019F00080F06282738251834083D9016D937C931E
:101A0000E114F10471F0D7011396FC93EE93129751
:101A10008ECF22968C0F9D1FF90191838083F30155
:101A2000EFCFF0937403E093730381CF4816590608
:101A300008F42C017D01D3019ACFCB010E94290B20
:101A40007C01009749F0AE01B8010E942F0DC8013A
:101A50000E94C50B87016BCF10E000E068CFFB014F
:101A6000DC0102C001900D9241505040D8F708951A
:101A70006817790768F4FB01DC01E40FF51FA40F78
:101A8000B51F02C002900E9241505040D8F7089501
:101A90000C942F0DFB01DC0101900D920020E1F769
:101AA0000895FB0151915523A9F0BF01DC014D912F
:101AB00045174111E1F759F4CD010190002049F09B
:101AC0004D9140154111C9F3FB014111EFCF81E068
:101AD00090E00197089511E0CCE4D1E000E006C069
:101AE000802FFE010E94210B2196011DCD34D107CC
:0A1AF00080E00807A9F7F894FFCF83
:101AFA0000007503800000000000A702C701F4017E
:101B0A00F4026502030257024800520054000D0015
:041B1A000D0A0000B0
:00000001FF
